{"abi":[{"type":"constructor","inputs":[{"name":"_decimals","type":"uint8","internalType":"uint8"},{"name":"_description","type":"string","internalType":"string"},{"name":"initialOwner","type":"address","internalType":"address"}],"stateMutability":"nonpayable"},{"type":"function","name":"decimals","inputs":[],"outputs":[{"name":"","type":"uint8","internalType":"uint8"}],"stateMutability":"view"},{"type":"function","name":"description","inputs":[],"outputs":[{"name":"","type":"string","internalType":"string"}],"stateMutability":"view"},{"type":"function","name":"getRoundData","inputs":[{"name":"_roundId","type":"uint80","internalType":"uint80"}],"outputs":[{"name":"roundId","type":"uint80","internalType":"uint80"},{"name":"answer","type":"int256","internalType":"int256"},{"name":"startedAt","type":"uint256","internalType":"uint256"},{"name":"updatedAt","type":"uint256","internalType":"uint256"},{"name":"answeredInRound","type":"uint80","internalType":"uint80"}],"stateMutability":"view"},{"type":"function","name":"latestAnswer","inputs":[],"outputs":[{"name":"","type":"int256","internalType":"int256"}],"stateMutability":"view"},{"type":"function","name":"latestRound","inputs":[],"outputs":[{"name":"","type":"uint80","internalType":"uint80"}],"stateMutability":"view"},{"type":"function","name":"latestRoundData","inputs":[],"outputs":[{"name":"roundId","type":"uint80","internalType":"uint80"},{"name":"answer","type":"int256","internalType":"int256"},{"name":"startedAt","type":"uint256","internalType":"uint256"},{"name":"updatedAt","type":"uint256","internalType":"uint256"},{"name":"answeredInRound","type":"uint80","internalType":"uint80"}],"stateMutability":"view"},{"type":"function","name":"latestTimestamp","inputs":[],"outputs":[{"name":"","type":"uint256","internalType":"uint256"}],"stateMutability":"view"},{"type":"function","name":"owner","inputs":[],"outputs":[{"name":"","type":"address","internalType":"address"}],"stateMutability":"view"},{"type":"function","name":"renounceOwnership","inputs":[],"outputs":[],"stateMutability":"nonpayable"},{"type":"function","name":"rounds","inputs":[{"name":"","type":"uint80","internalType":"uint80"}],"outputs":[{"name":"answer","type":"int256","internalType":"int256"},{"name":"startedAt","type":"uint256","internalType":"uint256"},{"name":"updatedAt","type":"uint256","internalType":"uint256"},{"name":"answeredInRound","type":"uint80","internalType":"uint80"}],"stateMutability":"view"},{"type":"function","name":"setAnswer","inputs":[{"name":"answer","type":"int256","internalType":"int256"},{"name":"roundId","type":"uint80","internalType":"uint80"},{"name":"updatedAt","type":"uint256","internalType":"uint256"}],"outputs":[],"stateMutability":"nonpayable"},{"type":"function","name":"transferOwnership","inputs":[{"name":"newOwner","type":"address","internalType":"address"}],"outputs":[],"stateMutability":"nonpayable"},{"type":"function","name":"version","inputs":[],"outputs":[{"name":"","type":"uint256","internalType":"uint256"}],"stateMutability":"view"},{"type":"event","name":"AnswerUpdated","inputs":[{"name":"current","type":"int256","indexed":true,"internalType":"int256"},{"name":"roundId","type":"uint256","indexed":true,"internalType":"uint256"},{"name":"updatedAt","type":"uint256","indexed":false,"internalType":"uint256"}],"anonymous":false},{"type":"event","name":"OwnershipTransferred","inputs":[{"name":"previousOwner","type":"address","indexed":true,"internalType":"address"},{"name":"newOwner","type":"address","indexed":true,"internalType":"address"}],"anonymous":false},{"type":"error","name":"OwnableInvalidOwner","inputs":[{"name":"owner","type":"address","internalType":"address"}]},{"type":"error","name":"OwnableUnauthorizedAccount","inputs":[{"name":"account","type":"address","internalType":"address"}]}],"bytecode":{"object":"0x60a0604052600160025534801562000015575f80fd5b5060405162000caf38038062000caf833981016040819052620000389162000111565b806001600160a01b0381166200006757604051631e4fbdf760e01b81525f600482015260240160405180910390fd5b620000728162000092565b5060ff8316608052600162000088838262000294565b5050505062000360565b5f80546001600160a01b038381166001600160a01b0319831681178455604051919092169283917f8be0079c531659141344cd1fd0a4f28419497f9722a3daafe3b4186f6b6457e09190a35050565b634e487b7160e01b5f52604160045260245ffd5b80516001600160a01b03811681146200010c575f80fd5b919050565b5f805f6060848603121562000124575f80fd5b835160ff8116811462000135575f80fd5b602085810151919450906001600160401b038082111562000154575f80fd5b818701915087601f83011262000168575f80fd5b8151818111156200017d576200017d620000e1565b604051601f8201601f19908116603f01168101908382118183101715620001a857620001a8620000e1565b816040528281528a86848701011115620001c0575f80fd5b5f93505b82841015620001e35784840186015181850187015292850192620001c4565b5f8684830101528097505050505050506200020160408501620000f5565b90509250925092565b600181811c908216806200021f57607f821691505b6020821081036200023e57634e487b7160e01b5f52602260045260245ffd5b50919050565b601f8211156200028f57805f5260205f20601f840160051c810160208510156200026b5750805b601f840160051c820191505b818110156200028c575f815560010162000277565b50505b505050565b81516001600160401b03811115620002b057620002b0620000e1565b620002c881620002c184546200020a565b8462000244565b602080601f831160018114620002fe575f8415620002e65750858301515b5f19600386901b1c1916600185901b17855562000358565b5f85815260208120601f198616915b828110156200032e578886015182559484019460019091019084016200030d565b50858210156200034c57878501515f19600388901b60f8161c191681555b505060018460011b0185555b505050505050565b608051610936620003795f395f61015601526109365ff3fe608060405234801561000f575f80fd5b50600436106100cb575f3560e01c8063715018a6116100885780638da5cb5b116100635780638da5cb5b146101f95780639a6fc8f514610213578063f2fde38b1461025a578063feaf968c1461026d575f80fd5b8063715018a6146101d45780637284e416146101dc5780638205bf6a146101f1575f80fd5b80632c7f190d146100cf5780632ede662f146100e4578063313ce5671461015157806350d25bcd1461018a57806354fd4d50146101a0578063668a0f02146101a9575b5f80fd5b6100e26100dd366004610751565b610275565b005b6101236100f2366004610786565b600360208190525f91825260409091208054600182015460028301549290930154909291906001600160501b031684565b604080519485526020850193909352918301526001600160501b031660608201526080015b60405180910390f35b6101787f000000000000000000000000000000000000000000000000000000000000000081565b60405160ff9091168152602001610148565b61019261040e565b604051908152602001610148565b61019260025481565b6004546101bc906001600160501b031681565b6040516001600160501b039091168152602001610148565b6100e2610456565b6101e4610469565b60405161014891906107a8565b6101926104f5565b5f546040516001600160a01b039091168152602001610148565b610226610221366004610786565b610540565b604080516001600160501b03968716815260208101959095528401929092526060830152909116608082015260a001610148565b6100e26102683660046107f4565b6105d5565b610226610612565b61027d6106c2565b816001600160501b03165f036102d257600480546001600160501b0316905f6102a58361081a565b82546101009290920a6001600160501b038181021990931691831602179091556004541692506103609050565b6004546001600160501b03908116908316116103415760405162461bcd60e51b8152602060048201526024808201527f526f756e64204944206d7573742062652067726561746572207468616e206c616044820152631d195cdd60e21b60648201526084015b60405180910390fd5b6004805469ffffffffffffffffffff19166001600160501b0384161790555b805f0361036a5750425b6040805160808101825284815260208082018481528284018581526001600160501b03878116606086018181525f828152600380885290899020975188559451600188015592516002870155915194909201805469ffffffffffffffffffff1916949092169390931790559151838152909185917f0559884fd3a460db3073b7fc896cc77986f16e378210ded43186175bf646fc5f910160405180910390a3505050565b6004545f906001600160501b03166104385760405162461bcd60e51b81526004016103389061084b565b506004546001600160501b03165f9081526003602052604090205490565b61045e6106c2565b6104675f6106ee565b565b6001805461047690610874565b80601f01602080910402602001604051908101604052809291908181526020018280546104a290610874565b80156104ed5780601f106104c4576101008083540402835291602001916104ed565b820191905f5260205f20905b8154815290600101906020018083116104d057829003601f168201915b505050505081565b6004545f906001600160501b031661051f5760405162461bcd60e51b81526004016103389061084b565b506004546001600160501b03165f9081526003602052604090206002015490565b6001600160501b038082165f908152600360208181526040808420815160808101835281548152600182015493810193909352600281015491830182905290920154909316606084015290918291829182918291906105b15760405162461bcd60e51b81526004016103389061084b565b80516020820151604083015160609093015198999198909750919550909350915050565b6105dd6106c2565b6001600160a01b03811661060657604051631e4fbdf760e01b81525f6004820152602401610338565b61060f816106ee565b50565b6004545f9081908190819081906001600160501b03166106445760405162461bcd60e51b81526004016103389061084b565b60048054604051639a6fc8f560e01b81526001600160501b03909116918101919091523090639a6fc8f59060240160a060405180830381865afa15801561068d573d5f803e3d5ffd5b505050506040513d601f19601f820116820180604052508101906106b191906108ac565b945094509450945094509091929394565b5f546001600160a01b031633146104675760405163118cdaa760e01b8152336004820152602401610338565b5f80546001600160a01b038381166001600160a01b0319831681178455604051919092169283917f8be0079c531659141344cd1fd0a4f28419497f9722a3daafe3b4186f6b6457e09190a35050565b6001600160501b038116811461060f575f80fd5b5f805f60608486031215610763575f80fd5b8335925060208401356107758161073d565b929592945050506040919091013590565b5f60208284031215610796575f80fd5b81356107a18161073d565b9392505050565b5f602080835283518060208501525f5b818110156107d4578581018301518582016040015282016107b8565b505f604082860101526040601f19601f8301168501019250505092915050565b5f60208284031215610804575f80fd5b81356001600160a01b03811681146107a1575f80fd5b5f6001600160501b0380831681810361084157634e487b7160e01b5f52601160045260245ffd5b6001019392505050565b6020808252600f908201526e139bc819185d18481c1c995cd95b9d608a1b604082015260600190565b600181811c9082168061088857607f821691505b6020821081036108a657634e487b7160e01b5f52602260045260245ffd5b50919050565b5f805f805f60a086880312156108c0575f80fd5b85516108cb8161073d565b8095505060208601519350604086015192506060860151915060808601516108f28161073d565b80915050929550929590935056fea264697066735822122033204ab5aa9d6984b21e408e916d5c3c8d0863f5d1f30338d7a6d731393a3e7464736f6c63430008180033","linkReferences":{}},"methodIdentifiers":{"decimals()":"313ce567","description()":"7284e416","getRoundData(uint80)":"9a6fc8f5","latestAnswer()":"50d25bcd","latestRound()":"668a0f02","latestRoundData()":"feaf968c","latestTimestamp()":"8205bf6a","owner()":"8da5cb5b","renounceOwnership()":"715018a6","rounds(uint80)":"2ede662f","setAnswer(int256,uint80,uint256)":"2c7f190d","transferOwnership(address)":"f2fde38b","version()":"54fd4d50"},"id":57}