{"abi":[{"type":"constructor","inputs":[{"name":"name","type":"string","internalType":"string"},{"name":"symbol","type":"string","internalType":"string"},{"name":"initialOwner","type":"address","internalType":"address"}],"stateMutability":"nonpayable"},{"type":"function","name":"allowance","inputs":[{"name":"owner","type":"address","internalType":"address"},{"name":"spender","type":"address","internalType":"address"}],"outputs":[{"name":"","type":"uint256","internalType":"uint256"}],"stateMutability":"view"},{"type":"function","name":"approve","inputs":[{"name":"spender","type":"address","internalType":"address"},{"name":"value","type":"uint256","internalType":"uint256"}],"outputs":[{"name":"","type":"bool","internalType":"bool"}],"stateMutability":"nonpayable"},{"type":"function","name":"balanceOf","inputs":[{"name":"account","type":"address","internalType":"address"}],"outputs":[{"name":"","type":"uint256","internalType":"uint256"}],"stateMutability":"view"},{"type":"function","name":"canMint","inputs":[{"name":"account","type":"address","internalType":"address"}],"outputs":[{"name":"","type":"bool","internalType":"bool"}],"stateMutability":"view"},{"type":"function","name":"cooldownSeconds","inputs":[],"outputs":[{"name":"","type":"uint256","internalType":"uint256"}],"stateMutability":"view"},{"type":"function","name":"decimals","inputs":[],"outputs":[{"name":"","type":"uint8","internalType":"uint8"}],"stateMutability":"view"},{"type":"function","name":"lastMintTime","inputs":[{"name":"","type":"address","internalType":"address"}],"outputs":[{"name":"","type":"uint256","internalType":"uint256"}],"stateMutability":"view"},{"type":"function","name":"maxMintPerCall","inputs":[],"outputs":[{"name":"","type":"uint256","internalType":"uint256"}],"stateMutability":"view"},{"type":"function","name":"mint","inputs":[{"name":"to","type":"address","internalType":"address"},{"name":"amount","type":"uint256","internalType":"uint256"}],"outputs":[],"stateMutability":"nonpayable"},{"type":"function","name":"name","inputs":[],"outputs":[{"name":"","type":"string","internalType":"string"}],"stateMutability":"view"},{"type":"function","name":"owner","inputs":[],"outputs":[{"name":"","type":"address","internalType":"address"}],"stateMutability":"view"},{"type":"function","name":"remainingCooldown","inputs":[{"name":"account","type":"address","internalType":"address"}],"outputs":[{"name":"","type":"uint256","internalType":"uint256"}],"stateMutability":"view"},{"type":"function","name":"renounceOwnership","inputs":[],"outputs":[],"stateMutability":"nonpayable"},{"type":"function","name":"setCooldownSeconds","inputs":[{"name":"newCooldown","type":"uint256","internalType":"uint256"}],"outputs":[],"stateMutability":"nonpayable"},{"type":"function","name":"setMaxMintPerCall","inputs":[{"name":"newAmount","type":"uint256","internalType":"uint256"}],"outputs":[],"stateMutability":"nonpayable"},{"type":"function","name":"symbol","inputs":[],"outputs":[{"name":"","type":"string","internalType":"string"}],"stateMutability":"view"},{"type":"function","name":"totalSupply","inputs":[],"outputs":[{"name":"","type":"uint256","internalType":"uint256"}],"stateMutability":"view"},{"type":"function","name":"transfer","inputs":[{"name":"to","type":"address","internalType":"address"},{"name":"value","type":"uint256","internalType":"uint256"}],"outputs":[{"name":"","type":"bool","internalType":"bool"}],"stateMutability":"nonpayable"},{"type":"function","name":"transferFrom","inputs":[{"name":"from","type":"address","internalType":"address"},{"name":"to","type":"address","internalType":"address"},{"name":"value","type":"uint256","internalType":"uint256"}],"outputs":[{"name":"","type":"bool","internalType":"bool"}],"stateMutability":"nonpayable"},{"type":"function","name":"transferOwnership","inputs":[{"name":"newOwner","type":"address","internalType":"address"}],"outputs":[],"stateMutability":"nonpayable"},{"type":"event","name":"Approval","inputs":[{"name":"owner","type":"address","indexed":true,"internalType":"address"},{"name":"spender","type":"address","indexed":true,"internalType":"address"},{"name":"value","type":"uint256","indexed":false,"internalType":"uint256"}],"anonymous":false},{"type":"event","name":"CooldownSecondsUpdated","inputs":[{"name":"newCooldown","type":"uint256","indexed":false,"internalType":"uint256"}],"anonymous":false},{"type":"event","name":"FaucetMint","inputs":[{"name":"to","type":"address","indexed":true,"internalType":"address"},{"name":"amount","type":"uint256","indexed":false,"internalType":"uint256"}],"anonymous":false},{"type":"event","name":"MaxMintPerCallUpdated","inputs":[{"name":"newAmount","type":"uint256","indexed":false,"internalType":"uint256"}],"anonymous":false},{"type":"event","name":"OwnershipTransferred","inputs":[{"name":"previousOwner","type":"address","indexed":true,"internalType":"address"},{"name":"newOwner","type":"address","indexed":true,"internalType":"address"}],"anonymous":false},{"type":"event","name":"Transfer","inputs":[{"name":"from","type":"address","indexed":true,"internalType":"address"},{"name":"to","type":"address","indexed":true,"internalType":"address"},{"name":"value","type":"uint256","indexed":false,"internalType":"uint256"}],"anonymous":false},{"type":"error","name":"ERC20InsufficientAllowance","inputs":[{"name":"spender","type":"address","internalType":"address"},{"name":"allowance","type":"uint256","internalType":"uint256"},{"name":"needed","type":"uint256","internalType":"uint256"}]},{"type":"error","name":"ERC20InsufficientBalance","inputs":[{"name":"sender","type":"address","internalType":"address"},{"name":"balance","type":"uint256","internalType":"uint256"},{"name":"needed","type":"uint256","internalType":"uint256"}]},{"type":"error","name":"ERC20InvalidApprover","inputs":[{"name":"approver","type":"address","internalType":"address"}]},{"type":"error","name":"ERC20InvalidReceiver","inputs":[{"name":"receiver","type":"address","internalType":"address"}]},{"type":"error","name":"ERC20InvalidSender","inputs":[{"name":"sender","type":"address","internalType":"address"}]},{"type":"error","name":"ERC20InvalidSpender","inputs":[{"name":"spender","type":"address","internalType":"address"}]},{"type":"error","name":"OwnableInvalidOwner","inputs":[{"name":"owner","type":"address","internalType":"address"}]},{"type":"error","name":"OwnableUnauthorizedAccount","inputs":[{"name":"account","type":"address","internalType":"address"}]}],"bytecode":{"object":"0x6080604052686c6b935b8bbd400000600655603c60075534801562000022575f80fd5b5060405162000f9b38038062000f9b8339810160408190526200004591620001bd565b8083836003620000568382620002ce565b506004620000658282620002ce565b5050506001600160a01b0381166200009657604051631e4fbdf760e01b81525f600482015260240160405180910390fd5b620000a181620000ab565b505050506200039a565b600580546001600160a01b038381166001600160a01b0319831681179093556040519116919082907f8be0079c531659141344cd1fd0a4f28419497f9722a3daafe3b4186f6b6457e0905f90a35050565b634e487b7160e01b5f52604160045260245ffd5b5f82601f83011262000120575f80fd5b81516001600160401b03808211156200013d576200013d620000fc565b604051601f8301601f19908116603f01168101908282118183101715620001685762000168620000fc565b816040528381526020925086602085880101111562000185575f80fd5b5f91505b83821015620001a8578582018301518183018401529082019062000189565b5f602085830101528094505050505092915050565b5f805f60608486031215620001d0575f80fd5b83516001600160401b0380821115620001e7575f80fd5b620001f58783880162000110565b945060208601519150808211156200020b575f80fd5b506200021a8682870162000110565b604086015190935090506001600160a01b038116811462000239575f80fd5b809150509250925092565b600181811c908216806200025957607f821691505b6020821081036200027857634e487b7160e01b5f52602260045260245ffd5b50919050565b601f821115620002c957805f5260205f20601f840160051c81016020851015620002a55750805b601f840160051c820191505b81811015620002c6575f8155600101620002b1565b50505b505050565b81516001600160401b03811115620002ea57620002ea620000fc565b6200030281620002fb845462000244565b846200027e565b602080601f83116001811462000338575f8415620003205750858301515b5f19600386901b1c1916600185901b17855562000392565b5f85815260208120601f198616915b82811015620003685788860151825594840194600190910190840162000347565b50858210156200038657878501515f19600388901b60f8161c191681555b505060018460011b0185555b505050505050565b610bf380620003a85f395ff3fe608060405234801561000f575f80fd5b5060043610610127575f3560e01c8063715018a6116100a9578063b8221bc41161006e578063b8221bc414610269578063c2ba474414610272578063dd62ed3e14610285578063f2fde38b146102bd578063f992f81c146102d0575f80fd5b8063715018a6146102185780637b5b1157146102205780638da5cb5b1461023357806395d89b411461024e578063a9059cbb14610256575f80fd5b8063313ce567116100ef578063313ce567146101a65780633fcf989f146101b557806340c10f19146101be5780636aa71d18146101d157806370a08231146101f0575f80fd5b806302695a0e1461012b57806306fdde0314610140578063095ea7b31461015e57806318160ddd1461018157806323b872dd14610193575b5f80fd5b61013e610139366004610a22565b6102e3565b005b610148610327565b6040516101559190610a39565b60405180910390f35b61017161016c366004610aa0565b6103b7565b6040519015158152602001610155565b6002545b604051908152602001610155565b6101716101a1366004610ac8565b6103d0565b60405160128152602001610155565b61018560065481565b61013e6101cc366004610aa0565b6103f3565b6101856101df366004610b01565b60086020525f908152604090205481565b6101856101fe366004610b01565b6001600160a01b03165f9081526020819052604090205490565b61013e610566565b61013e61022e366004610a22565b610579565b6005546040516001600160a01b039091168152602001610155565b6101486105b6565b610171610264366004610aa0565b6105c5565b61018560075481565b610171610280366004610b01565b6105d2565b610185610293366004610b1a565b6001600160a01b039182165f90815260016020908152604080832093909416825291909152205490565b61013e6102cb366004610b01565b610601565b6101856102de366004610b01565b61063e565b6102eb610689565b60068190556040518181527f2f069fbba0c7a852d6999bcd2d30ca662348233cc9b66f575d517af4c9fa722f906020015b60405180910390a150565b60606003805461033690610b4b565b80601f016020809104026020016040519081016040528092919081815260200182805461036290610b4b565b80156103ad5780601f10610384576101008083540402835291602001916103ad565b820191905f5260205f20905b81548152906001019060200180831161039057829003601f168201915b5050505050905090565b5f336103c48185856106b6565b60019150505b92915050565b5f336103dd8582856106c8565b6103e8858585610744565b506001949350505050565b5f81116104475760405162461bcd60e51b815260206004820152601d60248201527f416d6f756e74206d7573742062652067726561746572207468616e203000000060448201526064015b60405180910390fd5b6006548111156104995760405162461bcd60e51b815260206004820181905260248201527f416d6f756e742065786365656473206d6178206d696e74207065722063616c6c604482015260640161043e565b600754335f908152600860205260409020546104b59190610b97565b4210156105045760405162461bcd60e51b815260206004820152601b60248201527f436f6f6c646f776e20706572696f64206e6f7420656c61707365640000000000604482015260640161043e565b335f90815260086020526040902042905561051f82826107a1565b816001600160a01b03167f8a28e0854ec5cebc76dc276a5b565c3a3b0c140a254ed392854ee136cb258b698260405161055a91815260200190565b60405180910390a25050565b61056e610689565b6105775f6107d9565b565b610581610689565b60078190556040518181527f769c25b822a0d0101f3a95e3d8a3d00777acfc3c55fd63c753233abfe1e177389060200161031c565b60606004805461033690610b4b565b5f336103c4818585610744565b6007546001600160a01b0382165f9081526008602052604081205490916105f891610b97565b42101592915050565b610609610689565b6001600160a01b03811661063257604051631e4fbdf760e01b81525f600482015260240161043e565b61063b816107d9565b50565b6007546001600160a01b0382165f90815260086020526040812054909182916106679190610b97565b905080421061067857505f92915050565b6106824282610baa565b9392505050565b6005546001600160a01b031633146105775760405163118cdaa760e01b815233600482015260240161043e565b6106c3838383600161082a565b505050565b6001600160a01b038381165f908152600160209081526040808320938616835292905220545f1981101561073e578181101561073057604051637dc7a0d960e11b81526001600160a01b0384166004820152602481018290526044810183905260640161043e565b61073e84848484035f61082a565b50505050565b6001600160a01b03831661076d57604051634b637e8f60e11b81525f600482015260240161043e565b6001600160a01b0382166107965760405163ec442f0560e01b81525f600482015260240161043e565b6106c38383836108fc565b6001600160a01b0382166107ca5760405163ec442f0560e01b81525f600482015260240161043e565b6107d55f83836108fc565b5050565b600580546001600160a01b038381166001600160a01b0319831681179093556040519116919082907f8be0079c531659141344cd1fd0a4f28419497f9722a3daafe3b4186f6b6457e0905f90a35050565b6001600160a01b0384166108535760405163e602df0560e01b81525f600482015260240161043e565b6001600160a01b03831661087c57604051634a1406b160e11b81525f600482015260240161043e565b6001600160a01b038085165f908152600160209081526040808320938716835292905220829055801561073e57826001600160a01b0316846001600160a01b03167f8c5be1e5ebec7d5bd14f71427d1e84f3dd0314c0f7b2291e5b200ac8c7c3b925846040516108ee91815260200190565b60405180910390a350505050565b6001600160a01b038316610926578060025f82825461091b9190610b97565b909155506109969050565b6001600160a01b0383165f90815260208190526040902054818110156109785760405163391434e360e21b81526001600160a01b0385166004820152602481018290526044810183905260640161043e565b6001600160a01b0384165f9081526020819052604090209082900390555b6001600160a01b0382166109b2576002805482900390556109d0565b6001600160a01b0382165f9081526020819052604090208054820190555b816001600160a01b0316836001600160a01b03167fddf252ad1be2c89b69c2b068fc378daa952ba7f163c4a11628f55a4df523b3ef83604051610a1591815260200190565b60405180910390a3505050565b5f60208284031215610a32575f80fd5b5035919050565b5f602080835283518060208501525f5b81811015610a6557858101830151858201604001528201610a49565b505f604082860101526040601f19601f8301168501019250505092915050565b80356001600160a01b0381168114610a9b575f80fd5b919050565b5f8060408385031215610ab1575f80fd5b610aba83610a85565b946020939093013593505050565b5f805f60608486031215610ada575f80fd5b610ae384610a85565b9250610af160208501610a85565b9150604084013590509250925092565b5f60208284031215610b11575f80fd5b61068282610a85565b5f8060408385031215610b2b575f80fd5b610b3483610a85565b9150610b4260208401610a85565b90509250929050565b600181811c90821680610b5f57607f821691505b602082108103610b7d57634e487b7160e01b5f52602260045260245ffd5b50919050565b634e487b7160e01b5f52601160045260245ffd5b808201808211156103ca576103ca610b83565b818103818111156103ca576103ca610b8356fea2646970667358221220fdbccc86ed384be9b6215025402cc36812550597c8caa726fac4c1848d9e1b2f64736f6c63430008180033","linkReferences":{}},"methodIdentifiers":{"allowance(address,address)":"dd62ed3e","approve(address,uint256)":"095ea7b3","balanceOf(address)":"70a08231","canMint(address)":"c2ba4744","cooldownSeconds()":"b8221bc4","decimals()":"313ce567","lastMintTime(address)":"6aa71d18","maxMintPerCall()":"3fcf989f","mint(address,uint256)":"40c10f19","name()":"06fdde03","owner()":"8da5cb5b","remainingCooldown(address)":"f992f81c","renounceOwnership()":"715018a6","setCooldownSeconds(uint256)":"7b5b1157","setMaxMintPerCall(uint256)":"02695a0e","symbol()":"95d89b41","totalSupply()":"18160ddd","transfer(address,uint256)":"a9059cbb","transferFrom(address,address,uint256)":"23b872dd","transferOwnership(address)":"f2fde38b"},"id":55}