{"abi":[{"type":"function","name":"price","inputs":[],"outputs":[{"name":"","type":"uint256","internalType":"uint256"}],"stateMutability":"view"},{"type":"function","name":"setPrice","inputs":[{"name":"newPrice","type":"uint256","internalType":"uint256"}],"outputs":[],"stateMutability":"nonpayable"}],"bytecode":{"object":"0x6080604052348015600e575f80fd5b5060aa8061001b5f395ff3fe6080604052348015600e575f80fd5b50600436106030575f3560e01c806391b7f5ed146034578063a035b1fe146045575b5f80fd5b6043603f366004605e565b5f55565b005b604c5f5481565b60405190815260200160405180910390f35b5f60208284031215606d575f80fd5b503591905056fea2646970667358221220ba1882a55251d27f795303067e2042e6f7112d753bf65da5badf76874086a5c164736f6c63430008180033","linkReferences":{}},"methodIdentifiers":{"price()":"a035b1fe","setPrice(uint256)":"91b7f5ed"},"id":30}