{"abi":[{"type":"function","name":"borrowRate","inputs":[{"name":"marketParams","type":"tuple","internalType":"struct MarketParams","components":[{"name":"loanToken","type":"address","internalType":"address"},{"name":"collateralToken","type":"address","internalType":"address"},{"name":"oracle","type":"address","internalType":"address"},{"name":"irm","type":"address","internalType":"address"},{"name":"lltv","type":"uint256","internalType":"uint256"}]},{"name":"market","type":"tuple","internalType":"struct Market","components":[{"name":"totalSupplyAssets","type":"uint128","internalType":"uint128"},{"name":"totalSupplyShares","type":"uint128","internalType":"uint128"},{"name":"totalBorrowAssets","type":"uint128","internalType":"uint128"},{"name":"totalBorrowShares","type":"uint128","internalType":"uint128"},{"name":"lastUpdate","type":"uint128","internalType":"uint128"},{"name":"fee","type":"uint128","internalType":"uint128"}]}],"outputs":[{"name":"","type":"uint256","internalType":"uint256"}],"stateMutability":"pure"},{"type":"function","name":"borrowRateView","inputs":[{"name":"","type":"tuple","internalType":"struct MarketParams","components":[{"name":"loanToken","type":"address","internalType":"address"},{"name":"collateralToken","type":"address","internalType":"address"},{"name":"oracle","type":"address","internalType":"address"},{"name":"irm","type":"address","internalType":"address"},{"name":"lltv","type":"uint256","internalType":"uint256"}]},{"name":"market","type":"tuple","internalType":"struct Market","components":[{"name":"totalSupplyAssets","type":"uint128","internalType":"uint128"},{"name":"totalSupplyShares","type":"uint128","internalType":"uint128"},{"name":"totalBorrowAssets","type":"uint128","internalType":"uint128"},{"name":"totalBorrowShares","type":"uint128","internalType":"uint128"},{"name":"lastUpdate","type":"uint128","internalType":"uint128"},{"name":"fee","type":"uint128","internalType":"uint128"}]}],"outputs":[{"name":"","type":"uint256","internalType":"uint256"}],"stateMutability":"pure"}],"bytecode":{"object":"0x608060405234801561000f575f80fd5b5061030c8061001d5f395ff3fe608060405234801561000f575f80fd5b5060043610610034575f3560e01c80638c00bf6b146100385780639451fed41461005d575b5f80fd5b61004b610046366004610197565b610070565b60405190815260200160405180910390f35b61004b61006b366004610197565b6100c3565b80515f906001600160801b0316810361008a57505f6100bd565b815160408301515f916100a9916001600160801b0390811691166100d5565b90506100b96301e1338082610294565b9150505b92915050565b5f6100ce8383610070565b9392505050565b5f6100ce83670de0b6b3a7640000845f816100f084866102b3565b6100fa9190610294565b949350505050565b60405160a0810167ffffffffffffffff8111828210171561013157634e487b7160e01b5f52604160045260245ffd5b60405290565b60405160c0810167ffffffffffffffff8111828210171561013157634e487b7160e01b5f52604160045260245ffd5b80356001600160a01b038116811461017c575f80fd5b919050565b80356001600160801b038116811461017c575f80fd5b5f808284036101608112156101aa575f80fd5b60a08112156101b7575f80fd5b6101bf610102565b6101c885610166565b81526101d660208601610166565b60208201526101e760408601610166565b60408201526101f860608601610166565b606082015260808581013590820152925060c0609f198201121561021a575f80fd5b50610223610137565b61022f60a08501610181565b815261023d60c08501610181565b602082015261024e60e08501610181565b60408201526102606101008501610181565b60608201526102726101208501610181565b60808201526102846101408501610181565b60a0820152809150509250929050565b5f826102ae57634e487b7160e01b5f52601260045260245ffd5b500490565b80820281158282048414176100bd57634e487b7160e01b5f52601160045260245ffdfea2646970667358221220d165c736fc2fa87c0dcce838f2dd8f56595fba927b8be0bbd8dd3d9aac607e1364736f6c63430008180033","linkReferences":{}},"methodIdentifiers":{"borrowRate((address,address,address,address,uint256),(uint128,uint128,uint128,uint128,uint128,uint128))":"9451fed4","borrowRateView((address,address,address,address,uint256),(uint128,uint128,uint128,uint128,uint128,uint128))":"8c00bf6b"},"id":29}