{"abi":[{"type":"constructor","inputs":[{"name":"_aggregator","type":"address","internalType":"address"},{"name":"_maxStaleness","type":"uint256","internalType":"uint256"}],"stateMutability":"nonpayable"},{"type":"function","name":"aggregator","inputs":[],"outputs":[{"name":"","type":"address","internalType":"contract AggregatorV3Interface"}],"stateMutability":"view"},{"type":"function","name":"aggregatorDecimals","inputs":[],"outputs":[{"name":"","type":"uint8","internalType":"uint8"}],"stateMutability":"view"},{"type":"function","name":"getAggregatorData","inputs":[],"outputs":[{"name":"roundId","type":"uint80","internalType":"uint80"},{"name":"answer","type":"int256","internalType":"int256"},{"name":"startedAt","type":"uint256","internalType":"uint256"},{"name":"updatedAt","type":"uint256","internalType":"uint256"},{"name":"answeredInRound","type":"uint80","internalType":"uint80"},{"name":"decimals","type":"uint8","internalType":"uint8"}],"stateMutability":"view"},{"type":"function","name":"maxStaleness","inputs":[],"outputs":[{"name":"","type":"uint256","internalType":"uint256"}],"stateMutability":"view"},{"type":"function","name":"price","inputs":[],"outputs":[{"name":"","type":"uint256","internalType":"uint256"}],"stateMutability":"view"},{"type":"error","name":"InvalidPriceData","inputs":[]},{"type":"error","name":"StalePriceData","inputs":[]}],"bytecode":{"object":"0x60e060405234801561000f575f80fd5b506040516107c53803806107c583398101604081905261002e916100ad565b6001600160a01b038216608081905260a08290526040805163313ce56760e01b8152905163313ce567916004808201926020929091908290030181865afa15801561007b573d5f803e3d5ffd5b505050506040513d601f19601f8201168201806040525081019061009f91906100e4565b60ff1660c0525061010b9050565b5f80604083850312156100be575f80fd5b82516001600160a01b03811681146100d4575f80fd5b6020939093015192949293505050565b5f602082840312156100f4575f80fd5b815160ff81168114610104575f80fd5b9392505050565b60805160a05160c05161065a61016b5f395f818160eb015281816101f10152818161036501528181610390015281816103da015261040901525f818161012401526102d001525f818160ac01528181610164015261021e015261065a5ff3fe608060405234801561000f575f80fd5b5060043610610055575f3560e01c80631f266f1114610059578063245a7bfc146100a757806331b46c8b146100e657806387cf46961461011f578063a035b1fe14610154575b5f80fd5b61006161015c565b604080516001600160501b03978816815260208101969096528501939093526060840191909152909216608082015260ff90911660a082015260c0015b60405180910390f35b6100ce7f000000000000000000000000000000000000000000000000000000000000000081565b6040516001600160a01b03909116815260200161009e565b61010d7f000000000000000000000000000000000000000000000000000000000000000081565b60405160ff909116815260200161009e565b6101467f000000000000000000000000000000000000000000000000000000000000000081565b60405190815260200161009e565b610146610216565b5f805f805f807f00000000000000000000000000000000000000000000000000000000000000006001600160a01b031663feaf968c6040518163ffffffff1660e01b815260040160a060405180830381865afa1580156101be573d5f803e3d5ffd5b505050506040513d601f19601f820116820180604052508101906101e29190610467565b939a92995090975095509093507f000000000000000000000000000000000000000000000000000000000000000092509050565b5f805f805f807f00000000000000000000000000000000000000000000000000000000000000006001600160a01b031663feaf968c6040518163ffffffff1660e01b815260040160a060405180830381865afa158015610278573d5f803e3d5ffd5b505050506040513d601f19601f8201168201806040525081019061029c9190610467565b945094509450945094505f84136102c65760405163f45e167b60e01b815260040160405180910390fd5b8115806102fb57507f00000000000000000000000000000000000000000000000000000000000000006102f983426104c7565b115b1561031957604051630d57861b60e21b815260040160405180910390fd5b6001600160501b03851615806103405750846001600160501b0316816001600160501b0316105b1561035e5760405163f45e167b60e01b815260040160405180910390fd5b83602460ff7f00000000000000000000000000000000000000000000000000000000000000001610156103d6576103b67f000000000000000000000000000000000000000000000000000000000000000060246104e0565b6103c190600a6105d9565b6103cb90826105ee565b965050505050505090565b60247f000000000000000000000000000000000000000000000000000000000000000060ff1611156104425761042d60247f00000000000000000000000000000000000000000000000000000000000000006104e0565b61043890600a6105d9565b6103cb9082610605565b9695505050505050565b80516001600160501b0381168114610462575f80fd5b919050565b5f805f805f60a0868803121561047b575f80fd5b6104848661044c565b94506020860151935060408601519250606086015191506104a76080870161044c565b90509295509295909350565b634e487b7160e01b5f52601160045260245ffd5b818103818111156104da576104da6104b3565b92915050565b60ff82811682821603908111156104da576104da6104b3565b600181815b8085111561053357815f1904821115610519576105196104b3565b8085161561052657918102915b93841c93908002906104fe565b509250929050565b5f82610549575060016104da565b8161055557505f6104da565b816001811461056b576002811461057557610591565b60019150506104da565b60ff841115610586576105866104b3565b50506001821b6104da565b5060208310610133831016604e8410600b84101617156105b4575081810a6104da565b6105be83836104f9565b805f19048211156105d1576105d16104b3565b029392505050565b5f6105e760ff84168361053b565b9392505050565b80820281158282048414176104da576104da6104b3565b5f8261061f57634e487b7160e01b5f52601260045260245ffd5b50049056fea264697066735822122003984c4cb144ea8381099a2bae8f8620a960ce52a05675369e220079d7ad66d064736f6c63430008180033","linkReferences":{}},"methodIdentifiers":{"aggregator()":"245a7bfc","aggregatorDecimals()":"31b46c8b","getAggregatorData()":"1f266f11","maxStaleness()":"87cf4696","price()":"a035b1fe"},"id":56}